:1000000012C02CC02BC02AC029C028C027C026C0BF
:1000100025C08BC023C022C021C020C01FC01EC06D
:100020001DC0F3C41BC011241FBECFE5D4E0DEBF4A
:10003000CDBF13E0A0E6B0E0EAE2FFE002C0059029
:100040000D92A232B107D9F723E0A2E2B3E001C0DA
:100050001D92A339B207E1F70FD365C7D1CF89B994
:1000600090BD86E880BD88E18AB908955D9BFECF8A
:100070008CB90895CF93DF93EC0101C0F7DF89912C
:100080008111FCCFDF91CF910895CF93DF9300D002
:10009000CDB7DEB782E890E069837A83EBDF6981D0
:1000A000E62F7A81F72F05C0B0E0AF59BF4F8C9192
:1000B0008193AE2FA61B80916000A817A8F30F9024
:1000C0000F90DF91CF910895CF93DF93CDB7DEB737
:1000D0002A970FB6F894DEBF0FBECDBF4AE050E0BE
:1000E000BE016F5F7F4FDCD6C5DF2A960FB6F8944E
:1000F000DEBF0FBECDBFDF91CF910895BBCF8B9AEE
:10010000939A08958B9A93980895BA9AC29A0895EB
:10011000BA9AC29808958C98949A89B7816089BFD9
:1001200083B7866083BF789408951F920F920FB6AD
:100130000F9211248F939F93809124039091250314
:10014000019690932503809324039F918F910F90A4
:100150000FBE0F901F901895F894109225031092DF
:10016000240378940895F8DF209124033091250327
:1001700012BE4FE38DE093E0415080409040E1F7A4
:1001800000C0000042B78091240390912503821B98
:10019000930B5FEF589F9001599F300D1124240F4E
:1001A000311D8EE1829FA001839F500D1124CA0151
:1001B00008950F931F93CF93DF931F92CDB7DEB7B0
:1001C0008FEF898300E010E012C0B80183E0660F72
:1001D000771F8A95E1F76A5D7C4FCE0101963BD38C
:1001E00089818F3F69F00F5F1F4F8E3F59F0802F3D
:1001F0009981992341F00330110539F783E003C059
:100200008FEF01C08EEF0F90DF91CF911F910F9173
:10021000089510923E0380E090E035D3882331F0BA
:1002200081EA90E027DF81E080933E030895DF922A
:10023000EF92FF920F931F93CF93DF9300D01F9203
:10024000CDB7DEB7D12C36C0C80123E0880F991F87
:100250002A95E1F79E012F5F3F4FAE014E5F5F4F42
:10026000BE016D5F7F4F8A5D9C4F1DD3000F111F34
:1002700081111AC0EA808AE0E89E70011124015CB5
:100280001C4FF801F182E0828981D7D2E80EF11C7F
:10029000F801F182E0828B81882359F0F194E19496
:1002A000F108F182E08205C0F801E15CFC4F1182A7
:1002B0001082D3940D2D10E080914503992787FD7E
:1002C0009095081719070CF4BFCF0F900F900F905F
:1002D000DF91CF911F910F91FF90EF90DF900895E4
:1002E0002F923F924F925F926F927F928F929F9246
:1002F000AF92BF92CF92DF92EF92FF920F931F9334
:10030000CF93DF9300D000D0CDB7DEB7E82E8FEAD1
:1003100090E069837A83AEDE6981062F7A81172F98
:100320001C830B83F12C41E4942E53E5852E662427
:100330006A9462E0562E77E0772E44244394E3E0FB
:100340003E2EF4E02F2EA2E0CA2ED12CB4E0AB2E2C
:10035000B12CFCC08091220390912303833091053E
:1003600009F453C03CF481309105B9F00CF5892BA8
:1003700059F0E7C08530910509F473C00CF459C0F9
:10038000069709F0DEC0B5C0EB81FC818081813425
:1003900009F0D7C081E090E033C0EB81FC8180811F
:1003A000843509F0CAC0D0922303C0922203C9C089
:1003B000EB81FC8180818330C9F030F4813051F0D1
:1003C000823009F0BEC00FC08630A9F0873009F036
:1003D000B8C014C090926100809262008093630064
:1003E00030926000AAC085E090E00AC0B09223037A
:1003F000A0922203A6C083E090E002C086E090E0D5
:1004000090932303809322039CC0EB81FC81808125
:10041000811102C077DE03C0813009F470DE909252
:10042000610080926200F6E0F093630060926400E5
:1004300084C090926100809262003092630080914B
:10044000460390914703AC01662757FD6095762FD0
:1004500070936400709365009093660080936700CA
:100460006CC080914803811131C0A3DE80934503A5
:100470001092400310923F031092420310924103E6
:10048000109244031092430318165CF44092480300
:10049000C0DE87EA91E60197F1F700C00000C7DEF1
:1004A00015C08AEC90E0E6DD9092610095E49093AF
:1004B00062004092630010926400109265001092F6
:1004C0006600109267007092600037C090926100E1
:1004D000809262005092630080913F0390914003AC
:1004E00010926400109265009093660080936700FC
:1004F000EACFEB81FC818081811102C009DE13C04B
:10050000813089F4809146039091470385369105A7
:1005100014F0FBDD08C090926100F5E4F0936200F6
:100520005092630006C090926100809262007092C7
:100530006300609264002092600010922303109286
:1005400022038B819C8101969C838B838B819C8170
:10055000801B910BE816F9060CF0FCCE0F900F9063
:100560000F900F90DF91CF911F910F91FF90EF901F
:10057000DF90CF90BF90AF909F908F907F906F90C3
:100580005F904F903F902F900895CF93B998B8986F
:100590008F988E988A98A398A298A19883EE90E05D
:1005A00069DD86B38695817090E08EDD86B38170BB
:1005B00090E08ADD80B3992787FD9095892F881F69
:1005C0008827881F90E080DD80B386FB882780F92C
:1005D00090E07ADD80B382FB882780F990E074DDBB
:1005E00083B383FB882780F990E06EDD83B382FBC1
:1005F000882780F990E068DD83B38695817090E06C
:1006000063DD8EEF90E036DD96B39695917086B3FC
:10061000817081958270892720B3220F220B24706C
:10062000282790B396FB992790F991959870922777
:1006300080B382FB882780F981958071892793B3E5
:1006400093FB992790F991959072982783B382FB39
:10065000882780F9819580748927C3B3C695C170B6
:10066000C195C078C82787E191E004DD8C2F90E028
:100670002BDD8C2FCF910895A098A8982FE986E8BC
:1006800091E0215080409040E1F700C00000A89A1E
:100690002FE986E891E0215080409040E1F700C0CA
:1006A000000036DD87E690E0DADC86E291E0E2DC0D
:1006B00067D16BDF6FEF8BE082D180E791E087D16C
:1006C00085E490E089D127DD7894C1E07894E8D280
:1006D000813019F484E491E018C0811103C082E5EF
:1006E00091E013C0833019F480E691E00EC08230AF
:1006F00019F483E791E009C0853019F486E891E0A8
:1007000004C0843019F488E991E0B4DC7CD190E035
:10071000DBDC80914803811119C04BDD80934503D8
:100720001092400310923F03109242031092410333
:100730001092440310924303181624F4C093480304
:1007400068DD0CC08AEC90E095DC08C062DD87EAC9
:1007500091E60197F1F700C0000069DD04DD909398
:1007600047038093460387EA91E60197F1F700C0BB
:100770000000ACCFFC01680F791F80E048E10FC09A
:10078000219198E0322F3827532F517030FD842764
:100790008695513009F480682695915099F7E617AF
:1007A000F70771F708950F931F93CF93DF93DB0142
:1007B0009C911196FC911197E0E0E92B803181F436
:1007C000BF016E7FE3E0660F771FEA95E1F71696AB
:1007D0009C911697ECE0F0E0E91BF109E60FF71F9A
:1007E000F7FF07C091E0EA019883F195E195F109DF
:1007F00002C0EA011882883279F414968C91982FFD
:100800009076903649F086FF02C0EE7F05C085FFE6
:1008100002C0EC7F01C0E87FCF0144E09695879548
:100820004A95E1F7D9018C93EF70FF27E801E8833F
:10083000DF91CF911F910F910895982F990F980FE5
:10084000990F8D3018F4892F8B5F02C0892F885F34
:100850006AE0DDD208950F931F93CF93DF93EC01ED
:100860008B01B80188816ED2888381508D3F30F42E
:10087000F8018081883211F0803199F7DF91CF91B2
:100880001F910F910895CF93DF93EC0119D213D2EA
:10089000882329F0BE0184E49CD280E001C082E07C
:1008A000DF91CF9108956F927F928F929F92AF9236
:1008B000BF92CF92DF92EF92FF920F931F93CF934D
:1008C000DF93CDB7DEB729970FB6F894DEBF0FBE22
:1008D000CDBF6C015B014A018901F2D1B6018EEBFB
:1008E00078D2EE24E394F12CEC0EFD1E3E018AE05A
:1008F000680E711C25D2F70181937F01E615F7057B
:10090000C9F769E070E0CE01019634DF81110AC0B9
:100910009401A501BE016F5F7F4FF601808143DF27
:1009200080E001C083E029960FB6F894DEBF0FBEC9
:10093000CDBFDF91CF911F910F91FF90EF90DF908E
:10094000CF90BF90AF909F908F907F906F900895C1
:1009500086B78F70806C86BF0895089809989C01AF
:1009600040E050E060E87EE380E090E05CD220313F
:1009700028F030E0205131093595279520B90895A8
:100980008AEA91E0BBDBA89AA99A909A919A109270
:100990004B0310924A0310924D0310924C0384E6CD
:1009A00090E0DBDF86B7846086BF1092490386B78C
:1009B000816086BF86B7806486BF7894089591E091
:1009C000611101C090E0880F892B82B9089590933E
:1009D0004B0380934A03089590934D0380934C03F7
:1009E000089586B78F70806D86BF089583B986B7E6
:1009F0008F70806886BF08958111AACF86B78F70E7
:100A0000806886BF089581B108951F920F920FB636
:100A10000F9211242F933F934F935F936F937F9384
:100A20008F939F93AF93BF93EF93FF9381B1887F91
:100A3000883609F4ADC070F5803309F480C0A8F49D
:100A4000803109F455C038F4882309F40FC1883087
:100A500009F015C14DC0803209F471C0883209F423
:100A60004DC0883109F00BC149C0883409F467C012
:100A700038F4883309F468C0803409F000C179C0C3
:100A8000883509F44EC0803609F482C0803509F0FB
:100A9000F6C061C0803A09F49BC0A8F4803809F41C
:100AA00080C038F4803709F473C0883709F0E7C094
:100AB0006FC0803909F475C0883909F483C088385B
:100AC00009F0DDC07FC0883B09F4AAC038F4883A39
:100AD00009F492C0803B09F0D2C08EC0883C09F472
:100AE000BAC0883F09F4BEC0803C09F0C8C0B3C09A
:100AF00087EB91E003DB80914E0311C088EC91E01D
:100B0000FDDA90916F03809170039817D8F4E92F64
:100B1000F0E0E15BFC4F80819F5F90936F0366DFA5
:100B2000AEC088EE91E0EADA8091710393B1E82FCC
:100B3000F0E0ED58FC4F90838F5F809371038EEF50
:100B400091E0DCDA4EDF99C084E292E0D7DA86B732
:100B50008F70806891C089E392E0D0DA8091710350
:100B600093B1E82FF0E0ED58FC4F90838F5F8093B6
:100B700071038EE492E0C2DA2091710330E080913B
:100B8000720390E0019728173907FCF4E1DE77C083
:100B900082E692E0B3DA85E0809349031092710314
:100BA00051C086E792E0AADA8091710393B1E82FF1
:100BB000F0E0ED58FC4F90838F5F8093710380329B
:100BC00028F303C08BE892E099DA80E015DF57C084
:100BD00081EA92E093DA86B78F70806C86BFE091ED
:100BE0004A03F0914B03309709F447C063E773E081
:100BF00080917103099541C085EB92E07FDA84E032
:100C000080934903E0914C03F0914D03309731F00C
:100C10006FE473E080E209958093700310926F0394
:100C200089EC92E06BDA80916F03E82FF0E0E15BF2
:100C3000FC4F908193B98F5F80936F039091700305
:100C4000891720F486B78F70806C03C086B78F70C9
:100C5000806886BF14C08EED92E050DA86B78F7040
:100C6000806C0AC081E093E049DA09C080E193E03A
:100C700045DA86B78F70806D86BF10924903FF9169
:100C8000EF91BF91AF919F918F917F916F915F9104
:100C90004F913F912F910F900FBE0F901F9018957D
:100CA00080914903089522E003C0922F9A95F1F7AD
:100CB0008150D8F7089580B385FB882780F908957F
:100CC000CF9395988D9A89EEEEDF89EEECDF8D98C3
:100CD000959A85E3E8DFEFDFC82F89EEE4DFC130C6
:100CE00031F0E9DF91E0882319F090E001C091E054
:100CF000892FCF910895CF93C82F95988D9A81E031
:100D0000D2DFCC2311F08D98959A87E0CCDFD3DF2A
:100D1000C82F82E3C8DF8D98959A8C2FCF910895C4
:100D2000CF93DF93C82FD8E08C2F8170E4DFC69576
:100D30008111C068D150C1F78C2FDF91CF910895F8
:100D40008FEFEECFDF92EF92FF920F931F93CF932F
:100D5000DF93E82EEB01B4DF81112DC080EFE0DFDF
:100D6000F12C10E498EFD92ED10E81E0C4DF082FCA
:100D700081E0C1DF882319F0002369F01FC0011151
:100D80000AC01E1530F0888180FF05C0E11201C045
:100D900002C0F12E01E0802FAEDF988196950111FF
:100DA00001C001C09068988311501D11DECF2196BB
:100DB0001111D8CF05C0FF24FA9402C08EEFF82E8F
:100DC0008F2DDF91CF911F910F91FF90EF90DF90CA
:100DD0000895FF920F931F93CF93DF93F82EEB01AB
:100DE0006FDF209759F085E59BDF8E01085F1F4F6D
:100DF000899196DFC017D107D9F702C08CEC90DF3C
:100E00008F2DDF91CF911F910F91FF9089CF991B6B
:100E100079E004C0991F961708F0961B881F7A95F1
:100E2000C9F780950895052E97FB16F4009406D017
:100E300057FD0CD013D007FC09D07EF49095809517
:100E4000709561957F4F8F4F9F4F089550954095B6
:100E5000309521953F4F4F4F5F4F0895A1E21A2ED5
:100E6000AA1BBB1BFD010DC0AA1FBB1FEE1FFF1F4E
:100E7000A217B307E407F50720F0A21BB30BE40B9E
:100E8000F50B661F771F881F991F1A9469F76095E5
:100E90007095809590959B01AC01BD01CF0108959F
:100EA000FB019F01E8944230BCF04532ACF44A307B
:100EB00029F497FB1EF4909581959F4F642F772717
:100EC0001ED0805D8A330CF0895D8193CB01009741
:100ED000A9F716F45DE251931082C90100C0DC014C
:100EE000FC01672F71917723E1F7329704C07C9161
:100EF0006D9370836291AE17BF07C8F30895AA1B64
:100F0000BB1B51E107C0AA1FBB1FA617B70710F0F4
:100F1000A61BB70B881F991F5A95A9F78095909526
:0A0F2000BC01CD010895F894FFCF45
:100F2A002050617363616C20697320636F6F6C2159
:100F3A002150617363616C20697320436F6F6C2168
:100F4A0021000A693263536C6176655472616E736B
:100F5A006D6974536572766963650A0D00256C754F
:100F6A00004572726F722072656164696E67000A69
:100F7A000D693263536C617665526563656976659E
:100F8A00536572766963650A0D004E656E68756D04
:100F9A002073656E736F7220656E636F6E74726113
:100FAA00646F000A0D446576696365202842696E9C
:100FBA00617279292053746172743A0A0D000A0D1C
:100FCA00446576696365202842696E6172792920D1
:100FDA00456E643A0A0D000A0D4465766963652018
:100FEA0049443A0A0D000A0D41717561536C6176E4
:100FFA00652056312032303136205061756C6F527F
:10100A00420A0D000A4932435F4255535921210AC7
:10101A000D000A4932435F49444C4521210A0D001B
:10102A000A4932435F4D41535445525F5258212178
:10103A000A0D000A4932435F4D41535445525F54E9
:10104A005821210A0D000A4932435F534C41564543
:10105A005F525821210A0D000A4932435F534C411D
:10106A0056455F545821210A0D000A693263496EB8
:10107A00697428290A0D000A4932433A204D2D3E47
:10108A0053544152540A0D000A4932433A204D54EE
:10109A002D3E534C415F41434B206F7220444154D3
:1010AA00415F41434B0A0D000A4932433A204D52EF
:1010BA002D3E444154415F4E41434B0A0D000A49BB
:1010CA0032433A4D54522D3E534C415F4E41434BAD
:1010DA00206F72204D542D3E444154415F4E41438E
:1010EA004B0A0D000A4932433A204D542D3E4152D3
:1010FA00425F4C4F53540A0D000A4932433A204D7D
:10110A00522D3E444154415F41434B0A0D000A4966
:10111A0032433A204D522D3E534C415F41434B0AD4
:10112A000D000A4932433A2053522D3E534C415F37
:10113A0041434B0A0D000A4932433A2053522D3E8D
:10114A00444154415F41434B0A0D000A4932433A34
:10115A002053522D3E444154415F4E41434B0A0DA8
:10116A00000A4932433A2053522D3E53525F535498
:10117A004F500A0D000A4932433A2053542D3E5328
:10118A004C415F41434B0A0D000A4932433A20530E
:10119A00542D3E444154415F41434B0A0D000A49D4
:1011AA0032433A2053542D3E444154415F4E414309
:1011BA004B206F72204C4153545F444154410D0AF5
:1011CA00000A4932433A4E4F5F494E464F0D0A00D4
:1011DA000A4932433A4255535F4552524F520D0A19
:0211EA00000003
:00000001FF
